{
  "contractName": "ProductFactory",
  "abi": [
    {
      "constant": false,
      "inputs": [
        {
          "name": "name",
          "type": "string"
        }
      ],
      "name": "createProduct",
      "outputs": [],
      "payable": false,
      "stateMutability": "nonpayable",
      "type": "function"
    },
    {
      "constant": true,
      "inputs": [],
      "name": "getDeployedProducts",
      "outputs": [
        {
          "name": "",
          "type": "address[]"
        }
      ],
      "payable": false,
      "stateMutability": "view",
      "type": "function"
    }
  ],
  "bytecode": "0x6060604052341561000f57600080fd5b61085d8061001e6000396000f30060606040526004361061004c576000357c0100000000000000000000000000000000000000000000000000000000900463ffffffff16806302ec06be14610051578063a578861d146100ae575b600080fd5b341561005c57600080fd5b6100ac600480803590602001908201803590602001908080601f01602080910402602001604051908101604052809392919081815260200183838082843782019150505050505091905050610118565b005b34156100b957600080fd5b6100c1610245565b6040518080602001828103825283818151815260200191508051906020019060200280838360005b838110156101045780820151818401526020810190506100e9565b505050509050019250505060405180910390f35b600081336101246102d9565b80806020018373ffffffffffffffffffffffffffffffffffffffff1673ffffffffffffffffffffffffffffffffffffffff168152602001828103825284818151815260200191508051906020019080838360005b83811015610193578082015181840152602081019050610178565b50505050905090810190601f1680156101c05780820380516001836020036101000a031916815260200191505b509350505050604051809103906000f08015156101dc57600080fd5b9050600080548060010182816101f291906102e9565b9160005260206000209001600083909190916101000a81548173ffffffffffffffffffffffffffffffffffffffff021916908373ffffffffffffffffffffffffffffffffffffffff160217905550505050565b61024d610315565b60008054806020026020016040519081016040528092919081815260200182805480156102cf57602002820191906000526020600020905b8160009054906101000a900473ffffffffffffffffffffffffffffffffffffffff1673ffffffffffffffffffffffffffffffffffffffff1681526020019060010190808311610285575b5050505050905090565b6040516104e38061034f83390190565b8154818355818115116103105781836000526020600020918201910161030f9190610329565b5b505050565b602060405190810160405280600081525090565b61034b91905b8082111561034757600081600090555060010161032f565b5090565b9056006060604052341561000f57600080fd5b6040516104e33803806104e383398101604052808051820191906020018051906020019091905050806000806101000a81548173ffffffffffffffffffffffffffffffffffffffff021916908373ffffffffffffffffffffffffffffffffffffffff160217905550816001908051906020019061008d929190610095565b50505061013a565b828054600181600116156101000203166002900490600052602060002090601f016020900481019282601f106100d657805160ff1916838001178555610104565b82800160010185558215610104579182015b828111156101035782518255916020019190600101906100e8565b5b5090506101119190610115565b5090565b61013791905b8082111561013357600081600090555060010161011b565b5090565b90565b61039a806101496000396000f300606060405260043610610041576000357c0100000000000000000000000000000000000000000000000000000000900463ffffffff1680635dc9f68c14610046575b600080fd5b341561005157600080fd5b6100a1600480803590602001908201803590602001908080601f016020809104026020016040519081016040528093929190818152602001838380828437820191505050505050919050506100a3565b005b6100ab610190565b6080604051908101604052803373ffffffffffffffffffffffffffffffffffffffff168152602001607b8152602001607b8152602001838152509050600380548060010182816100fb91906101d5565b9160005260206000209060040201600083909190915060008201518160000160006101000a81548173ffffffffffffffffffffffffffffffffffffffff021916908373ffffffffffffffffffffffffffffffffffffffff16021790555060208201518160010155604082015181600201556060820151816003019080519060200190610188929190610207565b505050505050565b608060405190810160405280600073ffffffffffffffffffffffffffffffffffffffff16815260200160008152602001600081526020016101cf610287565b81525090565b81548183558181151161020257600402816004028360005260206000209182019101610201919061029b565b5b505050565b828054600181600116156101000203166002900490600052602060002090601f016020900481019282601f1061024857805160ff1916838001178555610276565b82800160010185558215610276579182015b8281111561027557825182559160200191906001019061025a565b5b5090506102839190610301565b5090565b602060405190810160405280600081525090565b6102fe91905b808211156102fa57600080820160006101000a81549073ffffffffffffffffffffffffffffffffffffffff0219169055600182016000905560028201600090556003820160006102f19190610326565b506004016102a1565b5090565b90565b61032391905b8082111561031f576000816000905550600101610307565b5090565b90565b50805460018160011615610100020316600290046000825580601f1061034c575061036b565b601f01602090049060005260206000209081019061036a9190610301565b5b505600a165627a7a72305820deed76858c48d30b247434900c906922b992a1336eee41ac5049119fa97073c20029a165627a7a72305820640efdafd724257e6295afbc0a253e064d35b95704544852c06b2e099c7da7f60029",
  "source": "pragma solidity ^0.4.17;\n\ncontract ProductFactory {\n    address[] deployedProducts;\n\n    function createProduct(string name) public {\n        address newProduct = new Product(name, msg.sender);\n        deployedProducts.push(newProduct);\n    }\n\n    function getDeployedProducts() public view returns(address[]) {\n        return deployedProducts;\n    }\n}\n\n// A product in the supply chain\ncontract Product {\n    address issuer;\n    string name;\n    string description;\n    Stage[] stages; // all the stages the product has gone through\n\n    // A stage in the product's supply chain cycle\n    struct Stage {\n        address issuer;\n        uint256 startDate;\n        uint256 endDate;\n        string description;\n    }\n    \n    function Product(string _name, address _issuer) public {\n        issuer = _issuer;\n        name = _name;\n    }\n\n    // Add a stage to the product's chain\n    function addStage(string _description) public {\n        Stage memory stage = Stage({\n            issuer: msg.sender, \n            description: _description,\n            startDate: 123,\n            endDate: 123\n        });\n\n        stages.push(stage);\n    } \n}\n",
  "sourcePath": "/home/pedro/Documents/Programming/supply-chain-eth/contracts/Product.sol",
  "compiler": {
    "name": "solc",
    "version": "0.4.19+commit.c4cbbb05.Emscripten.clang"
  },
  "schemaVersion": "2.0.0",
  "updatedAt": "2018-05-09T07:29:49.409Z"
}